:020000040800F2
:10000000E0090020CD010008372600082122000861
:10001000352600082B030008592B000800000000BB
:100020000000000000000000000000003B26000867
:100030008103000800000000392600083D26000862
:10004000E7010008E7010008E7010008E7010008F0
:10005000E7010008E7010008E7010008E7010008E0
:10006000E7010008E7010008E70100084503000870
:10007000510300085D0300086903000875030008C8
:10008000E7010008E7010008E7010008412B00082C
:100090004D2B00082D03000839030008E701000874
:1000A000E7010008AD260008E7010008E7010008A5
:1000B000E7010008E7010008B9260008E701000889
:1000C000E7010008E7010008E7010008E701000870
:1000D000E7010008292B0008E7010008352B00087C
:1000E000E7010008E7010008E7010008E701000850
:1000F000E7010008E7010008E7010008E701000840
:10010000E7010008E7010008E7010008E70100082F
:10011000E7010008E7010008E7010008E70100081F
:10012000E7010008E7010008E7010008E70100080F
:1001300000F002F800F03AF80AA090E8000C8244BF
:100140008344AAF10107DA4501D100F02FF8AFF29C
:10015000090EBAE80F0013F0010F18BFFB1A43F0A5
:1001600001031847742A0000942A0000103A24BFA3
:1001700078C878C1FAD8520724BF30C830C144BF0C
:1001800004680C607047000000230024002500264E
:10019000103A28BF78C1FBD8520728BF30C148BFEA
:1001A0000B6070471FB51FBD10B510BD00F058F8AB
:1001B0001146FFF7F7FF02F0E0FC00F076F803B419
:1001C000FFF7F2FF03BC00F07DF80000094880470C
:1001D00009480047FEE7FEE7FEE7FEE7FEE7FEE729
:1001E000FEE7FEE7FEE7FEE704480549054A064B41
:1001F00070470000A926000831010008E003002034
:10020000E0090020E0050020E00500204FF000029A
:1002100000B5134694469646203922BFA0E80C50FC
:10022000A0E80C50B1F12001BFF4F7AF090728BFD7
:10023000A0E80C5048BF0CC05DF804EB890028BF53
:1002400040F8042B08BF704748BF20F8022B11F07C
:10025000804F18BF00F8012B7047704770477047F8
:10026000754600F02BF8AE4605006946534620F06F
:100270000700854618B020B5FFF7B6FFBDE820405F
:100280004FF000064FF000074FF000084FF0000B52
:1002900021F00701AC46ACE8C009ACE8C009ACE805
:1002A000C009ACE8C0098D46704710B50446AFF3ED
:1002B00000802046BDE81040FFF781BF004870472E
:1002C0007C03002001491820ABBEFEE72600020097
:1002D0007047000070B5044600688168C943C907CB
:1002E00017D1816821F00101816000F0B3FE05465D
:1002F0000AE000BF00F0AEFE401B022804D92068CF
:100300008068C043C00706D020688068C043C0072B
:10031000F0D0002070BDA06A40F01000A062E06A3A
:1003200040F00100E062012070BDFEE7014800F0EE
:1003300084B9000084000020014800F07EB900006C
:1003400084000020014800F021BC00004000002093
:10035000014800F01BBC000038030020014800F0F9
:1003600015BC0000F4020020014800F00FBC0000A2
:10037000B0020020014800F009BC00006C0200201F
:10038000704772B6FEE70000F8B50024009490F8BC
:1003900024202546012A12D0012280F824204A6810
:1003A0001F23072A0DD20668776B521E02EB8202CA
:1003B00093409F430B6893401F43776319E00220EB
:1003C000F8BD06680D2A0AD2376BD21F02EB8202F3
:1003D00093409F430B6893401F43376309E0F76ADC
:1003E0000D3A02EB820293409F430B6893401F43F8
:1003F000F7620A68072306680A2A0AD3F7680A3AE6
:1004000002EB420293409F438B6893401F43F76087
:1004100008E0376902EB420293409F438B689340A8
:100420001F4337610A68102A01D0112A20D1124BCC
:1004300002689A4217D193681B0219D4936843F457
:10044000000393600968102912D10C490C4A09680D
:10045000B1FBF2F101EB8101490000E0491E00917E
:100460000029FBD104E0816A41F02001816201246E
:1004700080F824502046F8BD002401400C000020E4
:1004800040420F002DE9F04104004FF000057FD0FD
:10049000A06A002628B9E66284F82460204600F0AD
:1004A00081F82046FFF716FFA16AC90600D420B1E3
:1004B000A06A40F01000A0626AE0A16A21F48851AD
:1004C00041F00201A162334923688B42E16904D102
:1004D000B1F5402F01D14FF40021277B4FF4807CF0
:1004E00041EA470261680A43A168614508D00129D1
:1004F00006D0002194F814E0BEF1010F02D00AE00A
:100500006146F7E7C7B1A76A47F02007A762E76A25
:1005100047F00107E7625F6827F469470F435F60B0
:10052000236899681C4F394011439960A16861455F
:100530000BD0012909D00CE0DFF860E0A7690EEBD1
:1005400047370F4347F40061E5E7218A0D05A5F51C
:1005500080152168CB6A23F470032B43CB6221689A
:1005600089680F4B1940914208D1E662A16A21F0D7
:10057000020141F00101A162BDE8F081A06A20F012
:10058000020040F01000A062E06A40F00100E0626A
:100590000120F1E7003C0140FDF7E1FF00E0FFFF33
:1005A000FE0E1FFF70B586B0002605460096019628
:1005B0000296039600681B49884230D11A4988691F
:1005C00040F400708861886900F4007004908869C4
:1005D00040F0040088618869694600F004000490D6
:1005E0000120009003200190104800F031FC114CD4
:1005F0000F48C4E900068020C4E902604000206181
:10060000800060612020A0614FF44050E0612046EE
:1006100000F0E0FB08B1FFF7B4FE2C62656206B0A3
:1006200070BD00000024014000100240000801409D
:10063000080002404000002070472DE9F05F0546A9
:10064000006800244669D0F804908768D0F80CB0A0
:10065000D0F810A0D0F81880F10748D0F90714D0CE
:1006600001218160B80703D5284600F0CDF90CE0E0
:10067000780702D54FF4006407E0380702D54FF43D
:10068000805402E0284600F0BEF9F80516D5296826
:100690004FF480708860B80503D5284600F0B6F99D
:1006A0000CE0780502D544F4005407E0380502D583
:1006B00044F4804402E0284600F0A7F9F80316D578
:1006C00029684FF480308860B80303D5284600F0CD
:1006D0009FF90CE0780302D544F4004407E03803A6
:1006E00002D544F4803402E0284600F090F9300747
:1006F00007D55FEACB6004D52968102044F4007464
:10070000C86070074FF0080707D55FEA0B7004D583
:100710002868C760284600F071F9B00706D5286838
:10072000C068800702D0284600F069F9700607D536
:100730005FEACA6004D52968102044F48064086127
:10074000B00607D55FEA0A7004D528680761284615
:1007500000F056F9F00606D528680069800702D037
:10076000284600F04EF9B00308D55FEAC96005D508
:10077000296810204860284600F044F9F00307D5A6
:100780005FEA097004D528684760284600F041F9FF
:10079000300446D55FEA497040D5F00504D55FEADC
:1007A000C87001D044F00104B00504D55FEA887038
:1007B00001D544F00204700504D55FEA487001D504
:1007C00044F00404300529D518F0700F26D008F045
:1007D0007000402815D006DC102809D020280AD047
:1007E000302816D10AE050280ED0602811D10EE032
:1007F00044F008040DE044F010040AE044F0200442
:1008000007E044F0400404E044F0800401E044F4D4
:1008100080742868816921F0700181612968042051
:100820004860002C05D0686A204368622846FFF7BC
:1008300003FFBDE8F09F70B5040003D094F82000DA
:1008400010B104E0012070BD204600F081F820685E
:10085000016841F00101016000F0FCFB054605263E
:1008600004E000F0F7FB401B0A2811D8206840681C
:10087000C007F6D02068016821F00201016000F095
:10088000E9FB05460BE000F0E5FB401B0A2806D912
:10089000606A40F40030606284F82060D2E720682B
:1008A00040688007EFD4207E0128206801683DD091
:1008B00021F080010160607E01282068016838D045
:1008C00021F040010160A07E01282068016833D03A
:1008D00021F020010160E07E0128206801682ED00F
:1008E00041F010010160207F01282068016829D0B3
:1008F00021F008010160607F01282068016824D090
:1009000021F004010160D4E902010843D4E9041292
:10091000114308436168491E08432168C8610020EB
:100920006062012084F82000002070BD41F0800149
:10093000C0E741F04001C5E741F02001CAE721F0DE
:100940001001CFE741F00801D4E741F00401D9E7F5
:1009500010B586B0002100910191029103910068C9
:100960002349884242D12348C16941F00071C161E5
:10097000C16901F000710491816941F00401816154
:1009800080691D4C00F0040004904FF4006000905A
:100990006946204600F05CFAA01400900220019005
:1009A000032003906946204600F052FA00221146C7
:1009B000132000F0BBFB132000F0AAFB002211461D
:1009C000142000F0B3FB142000F0A2FB002211461B
:1009D000152000F0ABFB152000F09AFB0022114619
:1009E000162000F0A3FB162000F092FB06B010BD0D
:1009F000006400400010024000080140704770474A
:100A0000704770477047704770477047704770472E
:100A10007047704710B590F821100022022905D0C8
:100A20000421816380F82020012010BD01680B683B
:100A300023F00E030B6001680B6823F001030B60C9
:100A400090F84030C46B012101FA03F3636080F831
:100A5000211080F82020104610BD00002DE9F05F25
:100A600090F821100024022903D00421816301247D
:100A700085E001680A6822F00E020A6001680A68CF
:100A800022F001020A603F4E3E4FB215DFF8F4C07B
:100A9000DFF8F090DFF8ECA0DFF8E8B0DFF8E4E092
:100AA0000168783F13011502ACF1640CA9F15009FB
:100AB000AAF13C0AABF1280BAEF1140E4FF48018EA
:100AC000B14227D9B9420ED0614512D049451DD057
:100AD000514518D0594518D0714501D1424615E00D
:100AE000294EB14201D1012210E0274E1436B14205
:100AF00001D110220AE0244E2836B14206D0224A03
:100B00003C32914201D11A4600E02A461E49091F93
:100B10000A602BE0B94213D0614517D0494522D075
:100B200051451DD059451DD0714501D142461AE0AD
:100B3000B14202D14FF0807215E0134EB14201D1A3
:100B4000012210E0104E1436B14201D110220AE009
:100B50000D4E2836B14206D00B4A3C32914201D1AB
:100B60001A4600E02A46074980394A60012180F888
:100B70002110002180F82010416B01B188472046E8
:100B8000BDE8F09F80000240080402402DE9F05FBC
:100B9000C16B0A6801680B68046C4FF0040808FA1E
:100BA00004F8844D844E854FDFF814C2DFF81492A8
:100BB000DFF814A2DFF814B2DFF814E218EA020F2B
:100BC00065D05FEA437862D50A68920603D40A6862
:100BD00022F004020A60DFF8F0814FF480620168BD
:100BE00008F1140813011402414524D9A9420DD07B
:100BF000B1420FD0B9421AD0614515D0494515D040
:100C0000514501D1120312E0594501D104220EE0F1
:100C1000714501D140220AE06D4D1435A94206D03C
:100C20006B4A2832914201D11A4600E022466749B8
:100C3000091F0A6029E0A94213D0B14215D0B94278
:100C400020D061451BD049451BD0514502D14FF4FE
:100C5000800217E0414502D14FF0806212E0594511
:100C600001D104220EE0714501D140220AE0584D25
:100C70001435A94206D0564A2832914201D11A466B
:100C800000E022464B4908394A60C16A71E04FF0E2
:100C9000020808FA04F818EA020F70D05FEA8378B5
:100CA0006DD50A68920606D40A6822F00A020A6024
:100CB000012180F82110DFF810814FF400720168E3
:100CC00008F1140813011402414524D9A9420DD09A
:100CD000B1420FD0B9421AD0614515D0494515D05F
:100CE000514501D1120312E0594501D102220EE013
:100CF000714501D120220AE0354D1435A94206D0B4
:100D0000334A2832914201D11A4600E022462F4947
:100D1000091F0A6029E0A94213D0B14215D0B94297
:100D200020D061451BD049451BD0514502D14FF41D
:100D3000001217E0414502D14FF0007212E0594510
:100D400001D102220EE0714501D120220AE0204D9E
:100D50001435A94206D01E4A2832914201D11A46C2
:100D600000E02246134908394A60002180F820102B
:100D7000816A00291CD0BDE8F05F0847FFE708251D
:100D8000A540154214D01A0712D50A6822F00E02A7
:100D90000A6090F84020C36B012101FA02F25A6008
:100DA000816380F82110002180F82010016BE0E7BA
:100DB000BDE8F09F080002401C00024030000240E5
:100DC00044000240580002406C0002400804024007
:100DD0001C04024030B560B11A4B026814219A42DB
:100DE00009D2194B1344B3FBF1F18900016417498F
:100DF0000AE0012030BD134B5B421344B3FBF1F119
:100E0000890001640F490839C163022180F821106B
:100E1000136843F6F0718B43F0E901142143D0E9E4
:100E200002452C43214304692143446921438469D9
:100E30002143194311600021416301224277017768
:100E4000084630BD08040240F8FFFDBF0000024024
:100E50002DE9F84FDFF8C8910024A9F1040B2346CF
:100E60000F2709F1040AABF1040ED1E00125A540DA
:100E700006EA0502AA4276D1DFF8A8C14E68A6EBC1
:100E80000C0866452BD00DDC032E34D005DC36B3C0
:100E9000012E19D0022E2FD11BE0112E16D0122EAA
:100EA0002AD119E0B8F5881F19D006DCB8F5803FC3
:100EB00015D0B8F5801F1FD111E0B8F5001F0ED076
:100EC000B8F5041F18D10AE0CB6815E0CB681B1DEC
:100ED00012E0CB6808330FE0CB680C330CE08B6872
:100EE0002BB1012B4FF0080303D0456104E004232C
:100EF00002E0056100E00023FF2A01D8064601E078
:100F000000F104064FEA840501D9A5F12005D6F8C1
:100F1000008007FA05FC28EA0C0803FA05F548EA00
:100F20000508C6F800804D68ED0070D53E4DAE69ED
:100F300046F00106AE61AD6924F0030605F0010537
:100F400000953A4D06EB050CDCF80850A607360F65
:100F500007FA06F825EA0805DFF8D480404503D1F2
:100F60004FF0000825E052E0DFF8C880404502D18C
:100F70004FF001081DE0DFF8C080404502D14FF07E
:100F8000020816E0DFF8B480404502D14FF00308B4
:100F90000FE0DFF8AC80404502D14FF0040808E0D4
:100FA000DFF8A080404502D14FF0050801E04FF086
:100FB000060808FA06F848EA0508CCF808804D68E3
:100FC000D9F80060ED024D4601D5164300E0964386
:100FD0002E604D68DAF80060AD02554601D5164323
:100FE00000E096432E604D68DBF80060AD035D467F
:100FF00001D5164300E096432E604D68DEF8006090
:10100000ED03754601D5164300E096432E60641C3F
:101010000A681646E2407FF429AFBDE8F88F000069
:1010200008040140000011100010024000000140BF
:1010300000080140000C0140001001400014014074
:1010400000180140001C01400AB101617047090409
:10105000FBE70000014880687047000000000020A6
:1010600002488168027811448160704700000020C6
:10107000074810B5016841F010010160032000F03D
:1010800075F80F2000F006F800F024F8002010BDDD
:101090000020024070B50D4D04464FF47A71287857
:1010A000B1FBF0F00A490968B1FBF0F000F0E4FB95
:1010B00048B9102C07D200222146501E00F036F805
:1010C00000206C6070BD012070BD00000000002099
:1010D0000C0000200C4808B5816941F001018161D4
:1010E000816901F001010091C16941F08051C16144
:1010F000C06900F0805000900448416821F0E06130
:1011000041F00071416008BD001002400000014044
:10111000002809DB00F01F020121914040098000F6
:1011200000F1E020C0F8001170470000F0B40E4B51
:101130001B680C46C3F30223C3F10705042D00D935
:101140000425191D072901D2002300E0DB1E01261A
:1011500006FA05F1491E214099409E40761E164030
:101160003143F0BC01F0F9BC0CED00E0064900F0A1
:10117000070208684FF6FF03184040EA0220034ABE
:1011800010430860704700000CED00E00000FA0515
:101190002DE9F84305460078354CC00754D0E06986
:1011A0000026C00008D4E06940F08050E061E069AA
:1011B000012600F0805000902E480168C90512D425
:1011C0000168804641F480710160FFF743FF0746E4
:1011D00005E000BFFFF73EFFC01B642823D8D8F806
:1011E0000000C005F6D5206A10F4407021D0A9880F
:1011F00001F4407181421CD0206A1F49012220F471
:1012000040700A6000220A602062C00711D0FFF718
:1012100021FF074641F2883808E000BFFFF71AFFB8
:10122000C11B414502D90320BDE8F883206A80072D
:10123000F4D5206A696820F44070084320621EB12A
:10124000E06920F08050E0612878800705D560686B
:10125000A96820F44040084360602878C00605D59E
:101260006068696920F48000084360600020DBE763
:101270000010024000700040400442422DE9F04757
:101280000F46050061D0434E306800F00700B842B9
:1012900009D2306820F0070038433060306800F031
:1012A0000700B84251D128683B4C810712D540074E
:1012B00003D5606840F4E06060602878000703D5DB
:1012C000606840F4605060606068A96820F0F000D9
:1012D000084360602878C00728D06868012810D0CB
:1012E0002168022810D0890700292EDA616821F0D0
:1012F000030101436160FFF7ADFE804641F288398A
:101300000DE021688903EFE78901EDE7FFF7A2FE11
:10131000A0EB0801494502D90320BDE8F0876068C9
:10132000696800F00C00B0EB810FEFD1306800F07D
:101330000700B8420BD9306820F00700384330600E
:10134000306800F00700B84201D00120E5E72878B6
:10135000400705D56068E96820F4E06008436060F4
:101360002878000706D56068296920F4605040EAB3
:10137000C100606000F038F86168084AC1F30311E9
:10138000515CC8400649086006480068FFF782FEC5
:101390000020C2E70020024000100240BE2B0008DF
:1013A0000C0000200400002004480549006849683A
:1013B000044AC1F30221515CC84070470C00002070
:1013C00000100240CE2B0008044805490068496817
:1013D000044AC1F3C221515CC84070470C00002090
:1013E00000100240CE2B00080E4A51680E4801F052
:1013F0000C03042B11D0082B0FD10C48C1F38343ED
:10140000C903C05C0AD55168084AC1F34041921E25
:10141000515C054A5043B0FBF1F070470449484322
:10142000704700000010024000127A00AE2B000846
:1014300000093D002DE9F84F040070D02078C04D20
:10144000C00749D06868C0F38100012807D06868E8
:10145000C0F38100022809D16868C00306D5286856
:10146000800339D560680028E7D035E06068B0F5C2
:10147000803F0BD010B1B0F5A02F11D0286820F418
:1014800080302860286820F4802002E0286840F43A
:1014900080302860606890B1FFF7DCFD06460AE006
:1014A000286840F480202860F0E700BFFFF7D2FDF5
:1014B000801B642873D828688003F7D50CE0FFF7F9
:1014C000C9FD064605E000BFFFF7C4FD801B642888
:1014D000F0D828688003F7D420789A4E80074FF020
:1014E00001094FF0000839D5686810F00C0F07D0DB
:1014F0006868C0F38100022809D16868C00306D477
:101500002868800714D52069012808D110E02069D7
:10151000B0B1C6F80090FFF79DFD074605E00AE16F
:10152000FFF798FDC01B0228C4D828688007F7D5AC
:101530002868616920F0F80040EAC10028600DE0E9
:10154000C6F80080FFF786FD074604E0FFF782FD3E
:10155000C01B022823D828688007F7D4207800070A
:101560002CD57948A169D9B1C0F80090FFF772FD78
:10157000074604E0FFF76EFDC01B02280FD8686A1B
:101580008007F7D571484FF4FA510068B0FBF1F0CD
:10159000009000BF0098411E0091FAD20EE080E05A
:1015A000C0F80080FFF756FD074604E0FFF752FD44
:1015B000C01B022875D8686A8007F7D420784007D6
:1015C00060D5E8690027C00008D4E86940F0805081
:1015D000E861E869012700F0805000905C480168EC
:1015E000C90513D40168834641F480710160FFF797
:1015F00031FD824606E000BFFFF72CFDA0EB0A009C
:1016000064284ED8DBF80000C005F5D5E068012855
:101610000AD008B1052813D0286A20F001002862FA
:10162000286A20F0040002E0286A40F001002862E5
:10163000E06841F2883B98B1FFF70CFD82460BE071
:10164000286A40F004002862EEE700BFFFF702FDC1
:10165000A0EB0A0159455AD8286A8007F6D50CE054
:10166000FFF7F8FC824605E0FFF7F4FCA0EB0A0167
:1016700059454CD8286A8007F6D41FB1E86920F094
:101680008050E861E06988B36968C1F3810102298B
:1016900044D00228C6F8608004D0FFF7DBFC044683
:1016A00038E034E0FFF7D6FC074604E0FFF7D2FC51
:1016B000C01B02282BD828688001F7D4206AB0F517
:1016C000803F05D16868A16820F400300843686055
:1016D000D4E908010843696821F47411084368607B
:1016E000C6F86090FFF7B6FC044606E025E000BFB0
:1016F000FFF7B0FC001B022809D828688001F7D545
:101700001BE000BFFFF7A6FC001B022802D9032044
:10171000BDE8F88F28688001F4D40EE00128F7D0E6
:101720006868226A00F48031914204D1616A00F451
:101730007010884201D00120EAE70020E8E70000AD
:101740000010024000004242800442420C0000208F
:101750000070004070B5040009D0606A002540B1F7
:1017600025616561A56294F8510040B10CE001204B
:1017700070BD6068B0F5827FF4D0E561F2E784F86F
:101780005050204600F040F8022084F851002068B4
:10179000016821F040010160A088218900F4827075
:1017A00001F404410843A18901F400610843217C4C
:1017B00001F002010843217D01F001010843218B62
:1017C00001F400710843217F01F03801084394F8C7
:1017D000201001F080010843218D01F400510843DD
:1017E00021680860A069042101EA1040216848606E
:1017F0002068C16921F40061C1616565012084F838
:101800005100002070BD000030B585B00024009468
:1018100001940294039400681449884223D1144827
:10182000816941F480518161816901F480510491A1
:10183000816941F00401816180690E4D00F004006E
:101840000490A0200090022001900320039069469C
:101850002846FFF7FDFA4020CDE9000469462846F6
:101860000294FFF7F5FA05B030BD000000300140EA
:10187000001002400008014010B5401EB0F1807F0A
:1018800001D3012010BD4FF0E02460610F216017EB
:1018900001F063F90020A06107202061002010BD45
:1018A0007047704770B590F83C20012A2CD0012475
:1018B00080F83C40022280F83D2003685A689D6809
:1018C00022F070060A6832435A60104B02689A424E
:1018D0000ED00F4B9A420BD0B2F1804F08D00D4B77
:1018E0009A4205D00C4B9A4202D00C4B9A4204D13A
:1018F000496825F080031943916080F83D4000213C
:1019000080F83C10084670BD022070BD002C0140DC
:10191000003401400004004000080040000C00407A
:1019200010B5040003D094F83D0010B107E0012089
:1019300010BD002084F83C00204600F01FF8022073
:1019400084F83D00211D206800F0BCFE012084F8D1
:10195000460084F83E0084F83F0084F8400084F894
:10196000410084F8420084F8430084F8440084F87D
:10197000450084F83D00002010BD000008B51A4A5B
:1019800001681A4891420ED1816941F40061816178
:101990008069002200F40060009011461920FFF7D2
:1019A000C5FB192013E0B1F1804F14D0104A9142C9
:1019B00019D1C16941F00401C161C069002200F080
:1019C0000400009011461E20FFF7B0FB1E20BDE86A
:1019D0000840FFF79DBBC16941F00101C161C069C9
:1019E00000F00100009008BD002C014000100240F2
:1019F0000008004070B5044690F83C00002501281E
:101A000017D0012684F83C60022084F83D0020684D
:101A1000826822F0770222F47F42826008685028B0
:101A200038D00DDC20284FD005DC90B3102811D120
:101A30004AE0022070BD302846D040280AD13BE061
:101A400060282FD070280DD0B0F5805F03D0B0F59E
:101A5000005F12D0012584F83D60002084F83C002E
:101A6000284670BDCB68D1E90121206800F078FEDE
:101A70002068816841F0770109E0CB68D1E9012154
:101A8000206800F06DFE2068816841F4804181602B
:101A9000E1E719E0CA684968206800F035FF502185
:101AA000206806E0CA684968206800F03EFF6021AF
:101AB000206800F05FFECEE7CA684968206800F041
:101AC00023FF40212068F4E7226801461046F0E732
:101AD00070472DE9F04104460068C66805694FF07B
:101AE0000007A90713D5B10711D5F91E016101201F
:101AF0002077206880698007204602D0FFF7E8FF42
:101B000004E000F0AFF8204600F041F927776807BD
:101B100016D5700714D521686FF004000861022003
:101B200020772068806910F4407F204602D0FFF7BC
:101B3000CFFF04E000F096F8204600F028F9277760
:101B4000280715D5300713D521686FF00800086104
:101B5000042020772068C0698007204602D0FFF764
:101B6000B7FF04E000F07EF8204600F010F9277778
:101B7000E80616D5F00614D521686FF0100008614C
:101B8000082020772068C06910F4407F204602D0EA
:101B9000FFF79EFF04E000F065F8204600F0F7F83C
:101BA0002777E80708D0F00706D021686FF001001A
:101BB0000861204600F0ECF8280608D5300606D566
:101BC00021686FF0800008612046FFF769FE680613
:101BD00008D5700606D521686FF0400008612046E0
:101BE00000F0D7F8A8060AD5B00608D521686FF02E
:101BF000200008612046BDE8F041FFF752BEBDE875
:101C0000F081000000B585B00021009101910291A2
:101C100003910068B0F1804F1BD10F48816941F0FA
:101C2000080181618069694600F0080004904FF462
:101C3000406000900220019003900848FFF708F9E7
:101C40000748416821F4407141F0E06141F40071BE
:101C5000416005B000BD000000100240000C0140D2
:101C600000000140704770B5044690F83C00002623
:101C70000D4601280FD0012084F83C006AB1042AE7
:101C80001DD0082A2FD00C2A3FD00126002084F82E
:101C90003C00304670BD022070BD206800F072FD2F
:101CA0002068816941F0080181612068816921F023
:101CB00004018161206881692A69114311E020686B
:101CC00000F090FD2068816941F400618161206825
:101CD000816921F480618161206881692A6941EA12
:101CE00002218161D2E7206800F0B2FD2068C1695D
:101CF00041F00801C1612068C16921F00401C1619E
:101D00002068C1692A69114311E0206800F0D4FD00
:101D10002068C16941F40061C1612068C16921F492
:101D20008061C1612068C1692A6941EA0221C161FB
:101D3000ACE710B5040003D094F83D0010B107E003
:101D4000012010BD002084F83C00204600F01EF861
:101D5000022084F83D00211D206800F0B3FC012022
:101D600084F8460084F83E0084F83F0084F8400080
:101D700084F8410084F8420084F8430084F8440069
:101D800084F8450084F83D00002010BD704770477E
:101D90007047704770477047F8B501680446086897
:101DA000CA684B6910F00F0F4FF0000559D003F0CF
:101DB000010602F49077374365D0C10705D0D105FD
:101DC00003D5616C41F001016164410705D5D90774
:101DD00003D0616C41F002016164810705D5D90728
:101DE00003D0616C41F004016164010707D502F082
:101DF0002001314303D0616C41F008016164616CE2
:101E000000293AD0800604D5900602D5204600F07D
:101E1000CDFD20684069616CC0F38010090700D4D3
:101E200060B3204600F09BFD20684069400621D544
:101E30002068143050E8001F21F0400140E80012F3
:101E4000002AF5D1E06BA8B16D494163E06BFEF764
:101E500005FE002811D0E06B416B01B0BDE8F040F9
:101E6000084783060FD593060DD52046BDE8F840F8
:101E700000F09CBD2046FFF78EFFF8BD2046FFF71F
:101E80008AFF6564F8BD266B2023012E7CD1C6062F
:101E90007AD5D60678D508684868009048694FF02A
:101EA0000206400640D5E16B086840680004000C5B
:101EB000E8D0A28D8242E5D9E085886920282DD01E
:101EC00020680C3050E8001F21F4807140E80012B7
:101ED000002AF5D12068143050E8001F21F00101DC
:101EE00040E80012002AF5D12068143050E8001FA5
:101EF00021F0400140E80012002AF5D184F8423078
:101F0000256320680C3050E8001F21F0100140E8E4
:101F10000012002AF5D1E06BFEF77CFD6663A08D10
:101F2000E18D401A81B22AE0A08DE18D401A81B284
:101F3000E08D0028A6D00029A4D022680C3252E8F7
:101F4000000F20F4907042E80007002FF5D12068C0
:101F5000143050E8002F22F0010240E80027002F43
:101F6000F5D184F84230256320680C3050E8002F0A
:101F700022F0100240E80023002BF5D166632046D2
:101F8000FFF708FFF8BDFFE705062BD5150629D595
:101F900094F841002128F5D1A068B0F5805F01D107
:101FA0002069B0B1206A411C216221680078486034
:101FB000E08C401E0004000CE084E3D12068C1687E
:101FC00021F08001C1602068C16841F04001C1601A
:101FD000D8E7206A0088C0F308004860206A801CA7
:101FE0002062E5E74006CDD55006CBD5CA6820462D
:101FF00022F04002CA6084F8413000F010F9C1E7D5
:102000004F29000870B5040004D094F84100002561
:1020100010B106E0012070BD84F84050204600F069
:1020200023F8242084F841002068C16821F400517D
:10203000C160204600F01CFD2068016921F4904138
:1020400001612068416921F02A0141612068C1686D
:1020500041F40051C1606564202084F8410084F897
:1020600042006563002070BD2DE9F04786B0002571
:102070000095019502950395044603686048DFF8D2
:102080007CC102210322071580264FF020084FF063
:10209000100963454DD1836943F4804383618369AB
:1020A00003F480430493836943F0040383618069EC
:1020B000DFF850A100F0040004900802CDE900010F
:1020C000039269465046FEF7C3FECDE900756946A6
:1020D00050460295FEF7BCFE4C4F4B48C7E9000541
:1020E000C7E902563D61C7E905583846FD61FEF76C
:1020F00071FE08B1FEF745F9E7637C62434F424841
:1021000044371438C7E902563D617D61BD61FD6108
:10211000C7E900093846FEF75DFE08B1FEF731F960
:10212000A7630022114625207C62FEF7FFFF2520D1
:102130005EE0DFF8DCC063455CD1C36943F4802313
:10214000C361C36903F480230493836943F01003DC
:1021500083618069CDE9007100F01000CDE90320B2
:102160002C4F69463846FEF773FEF814CDE900059A
:10217000694638460295FEF76BFE2748416821F014
:10218000300141F0E06141F0100141601F4F1E48F5
:1021900088372838C7E90005C7E902563D614FF482
:1021A00040507D61C7E906803846FEF713FE08B14E
:1021B000FEF7E7F8E7637C62144F1348CC373C38EE
:1021C000C7E902563D617D61C7E900094FF400503F
:1021D000C7E906503846FEF7FDFD08B1FEF7D1F815
:1021E000A7630022114627207C62FEF79FFF27206D
:1021F000FEF78EFF06B0BDE8F08700000038014012
:102200000010024000080140580002406C0200200B
:102210000048004000100140000001407047704736
:10222000FEE700003EB5002410480094019402949B
:102230000D498460016004730475012505614FF444
:1022400060214460C161FEF71DF908B1FEF799F8FD
:10225000CDE90045694605480294FEF795F8002847
:1022600001D0FEF78EF83EBD002401401000002092
:102270000D4810B50B4901601021416000218160BB
:10228000C16001614161017641768176C176017755
:102290004177FEF7D0FA002803D0BDE81040FEF7E2
:1022A00070B810BD0064004084000020194808B5D3
:1022B000416941F0010141614069002200F00100E3
:1022C000009011460B20FEF731FF0B20FEF720FF98
:1022D000002211460C20FEF729FF0C20FEF718FF04
:1022E000002211460D20FEF721FF0D20FEF710FF02
:1022F000002211460E20FEF719FF0E20FEF708FF00
:10230000002211460F20FEF711FFBDE808400F2004
:10231000FEF7FEBE001002402DE9F04786B0002413
:1023200035480094019402940394816941F020019E
:102330008161816901F020010491816941F01001FE
:102340008161816901F010010491816941F004010A
:102350008161816901F004010491816941F0080102
:1023600081618069254F00F00800049000220C2153
:102370003846FEF769FEDFF88890002216214846AD
:10238000FEF762FEDFF87CA04FF440580022414681
:102390005046FEF759FE0C2001250226CDE9000526
:1023A000CDE9024669463846FEF752FD06270097FA
:1023B0000396CDE9015469464846FEF749FD1020D1
:1023C000CDE900050320CDE9024069464846FEF705
:1023D0003FFDCDE90074694650460294FEF738FD92
:1023E000CDF800800396CDE9015469465046FEF7CA
:1023F0002FFD06B0BDE8F08700100240001001403C
:1024000000080140000C01400F4810B50D49016063
:102410004FF48271416000218160C1604FF400720D
:102420000161C0E90512C1610162416281620A2154
:10243000C162FFF78FF9002803D0BDE81040FDF717
:10244000A0BF10BD00300140AC00002010B586B028
:1024500000241848009401940294039404941449AD
:10246000059401604721C0E9011442F20F71C0E9EF
:1024700003148021C0E90541FFF752FA08B1FDF7C6
:1024800080FF4FF48050009069460A48FFF7B2FA87
:1024900008B1FDF776FF049404A906480594FFF7F8
:1024A00001FA002801D0FDF76CFF06B010BD000056
:1024B000002C01400401002010B58EB000240794C8
:1024C000089409940A940B941C2168460C94FDF717
:1024D0009DFE21484FF08041C0E9001440F2FF31D9
:1024E000C0E9024104618461FFF71AFA08B1FDF7FF
:1024F00048FF4FF48050079007A91748FFF77AFA72
:1025000008B1FDF73EFF1448FFF713FC08B1FDF7D3
:1025100038FF0B940BA910480C94FFF7C3F908B1CE
:10252000FDF72FFF6020CDE90004029408226946E0
:1025300009480494FFF797FB08B1FDF722FF0C222E
:1025400069460548FFF78FFB08B1FDF71AFF0248FF
:10255000FFF758FB0EB010BD4C01002010B586B03F
:10256000002417480094019402940394049413499E
:10257000059401604721C0E901143121C0E9031429
:1025800080218161FFF7CCF908B1FDF7FAFE4FF425
:102590008050009069460A48FFF72CFA08B1FDF711
:1025A000F0FE049404A906480594FFF77BF900287F
:1025B00001D0FDF7E6FE06B010BD000000080040A7
:1025C000940100200C4810B50A4901604FF4E13134
:1025D0004160002181600C22C160C0E90412816168
:1025E000C161FFF70FFD002803D0BDE81040FDF7E3
:1025F000C8BE10BD00380140DC0100200C4810B5F9
:102600000A4901604FF4E1314160002181600C22F0
:10261000C160C0E904128161C161FFF7F3FC0028C9
:1026200003D0BDE81040FDF7ACBE10BD004800402F
:1026300024020020FEE7FEE770477047FEF710BD5A
:1026400030B595B028216846FDF7E0FD14210AA8B1
:10265000FDF7DCFD18210FA8FDF7D8FD01200225AC
:102660000490009510200024059007946846FEF71A
:10267000E1FE08B172B6FEE70F20CDE90A040C9422
:102680000D9400210AA80E94FEF7F8FD08B172B669
:10269000FEE70FA80F951194FEF77AFD002801D0F0
:1026A00072B6FEE715B030BD704700000148FFF775
:1026B00010BA0000040100200148FFF70ABA000028
:1026C00094010020F0B50268204C214D214E224F8C
:1026D000224B4FF0804CA04209D0984207D0604571
:1026E00005D0A84203D0B04201D0B84204D122F0B4
:1026F000700E4A6842EA0E02A04209D0984207D002
:10270000604505D0A84203D0B04201D0B84203D101
:1027100022F44075CA682A434D6922F080022A4398
:1027200002608A68C2620A688262A04201D098424E
:1027300001D109690163012141610169C90703D020
:10274000016921F001010161F0BD0000002C014090
:102750000004004000080040000C0040003401402C
:1027600010B5846842EA032224F47F440A432243DA
:10277000826010BD826822F070020A4342F00701B5
:1027800081607047F0B5036A026A22F001020262BA
:1027900042688469124E24F073050C682C4323F0C0
:1027A00002058B682B430D4DA84201D0B04205D1E4
:1027B00023F00807CB683B4323F00403A84201D071
:1027C000B04205D14D6922F4407215438A692A430B
:1027D00042608461496841630362F0BD002C01409E
:1027E00000340140F0B5026A036A23F0100303626B
:1027F000436884690D6824F4E64444EA05248D683E
:1028000022F0200242EA05120F4D104EA84201D0DC
:10281000B04206D1CF6822F0800242EA071222F0CD
:102820004002A84201D0B04207D14D6923F4406371
:1028300043EA85038D6943EA8503436084614968FF
:1028400081630262F0BD0000002C014000340140B1
:10285000F0B5026A036A23F4807303624368C469B3
:1028600022F4007224F073050C68124E2C438D681C
:1028700042EA05220E4DA84201D0B04206D1CF68EF
:1028800022F4006242EA072222F48062A84201D0C8
:10289000B04207D14D6923F4405343EA05138D69D3
:1028A00043EA05134360C4614968C1630262F0BD35
:1028B000002C01400034014030B5046A026A22F461
:1028C000805202624268C3690D6823F4E64343EA1A
:1028D00005238D6824F4005444EA0534084DA842C9
:1028E00002D0084DA84204D14D6922F4804242EA48
:1028F00085124260C36149680164046230BD000012
:10290000002C01400034014010B5036A046A24F031
:1029100001040462846924F0F00444EA021423F000
:102920000A020A438461026210BD10B5036A046A98
:1029300024F010040462846923F0A00324F470449A
:1029400044EA023243EA01118261016210BD10B50E
:10295000406A0021C185C184FFF71DFA10BD0168DE
:102960000C3151E8002F22F4907241E80023002B33
:10297000F5D10168143151E8002F22F0010241E83D
:102980000023002BF5D1016B012909D101680C311D
:1029900051E8002F22F0100241E80023002BF5D16E
:1029A000202180F8421000210163704708B590F89B
:1029B0004210222901D0022008BD82684FF48053C2
:1029C0009A4201D1016921B1816A9A421BD04AB170
:1029D0000AE00268816A5268C2F308020A80816ACA
:1029E000891C08E0026972B10268526802F07F0235
:1029F0000A70816A491C8162C18D491E0904090C53
:102A0000C18503D01BE002685268F1E70168CA681B
:102A100022F02002CA600168CA6822F48072CA608B
:102A200001684A6922F001024A61202180F84210BF
:102A300000214163026B012A03D0FFF7EFFB002066
:102A400008BD016301680C3151E8002F22F010022B
:102A500041E80023002BF5D101680A68D20602D5AF
:102A60000A6849680091818DFFF794F9E7E7000053
:102A700070B5044600680169E26821F440511143D1
:102A800001612169A0680843616908432168CA6837
:102A900041F20C639A430243CA6020684169A2690B
:102AA00021F44071114341611E492068884202D1DE
:102AB000FEF78AFC01E0FEF777FC00EBC00101EBBA
:102AC0000012606864218000B2FBF0F3B3FBF1F305
:102AD0006FF018067343B2FBF0F5B2FBF0F605EBAE
:102AE0008305322303EB0515B5FBF1F5B6FBF1F6D3
:102AF00005F0F00505EB0615B2FBF0F6B2FBF0F0C1
:102B0000B0FBF1F06FF01802504306EB800003EBCE
:102B10000010B0FBF1F0216800F00F00284488603D
:102B200070BD0000003801400148FFF735B90000D2
:102B3000DC0100200148FFF72FB90000240200202B
:102B40000148FDF77ABD0000840000200148FDF730
:102B500074BD000084000020FEE70907090E00286C
:102B600004DB00F1E02080F80014704700F00F0053
:102B700000F1E02080F8141D7047FEF779FAFFF7A6
:102B80005FFDFFF7C9FBFFF791FBFFF74BFBFFF77B
:102B90006FFBFFF739FCFFF759FCFFF78DFCFFF7E0
:102BA000DDFCFFF70FFDFFF729FDFEE70102020341
:102BB0000405060708090A0B0C0D0E0F1010000083
:102BC00000000000000001020304060708090000DD
:102BD0000000010203040000F82B000800000020A0
:102BE000100000006C010008082C000810000020F4
:102BF000D00900008801000801000000100000005A
:082C00000000000000127A0040
:0400000508000131BD
:00000001FF
