:020000040800F2
:10000000E80C00204901000823270008A722000867
:100010002127000837020008053000080000000012
:10002000000000000000000000000000272700087A
:10003000B702000800000000252700082927000853
:100040006301000863010008630100086301000800
:1000500063010008630100086301000863010008F0
:1000600063010008630100086301000851020008F1
:100070005D0200086902000875020008810200089C
:10008000630100086301000863010008452E0008B1
:10009000512E0008390200084502000863010008DB
:1000A0006301000899270008630100086301000844
:1000B00063010008A5270008B127000863010008B4
:1000C0006301000863010008630100086301000880
:1000D00063010008252E000863010008312E000886
:1000E0006301000863010008630100086301000860
:1000F0006301000863010008630100086301000850
:10010000630100086301000863010008630100083F
:10011000630100086301000863010008BD270008AF
:10012000630100086301000863010008630100081F
:10013000DFF810D000F042F800480047B33500085F
:10014000AFF30080E80C00200648804706480047CF
:10015000FEE7FEE7FEE7FEE7FEE7FEE7FEE7FEE777
:10016000FEE7FEE795270008310100084FF0FF3059
:10017000704740EA01039B0703D009E008C9121F3A
:1001800008C0042AFAD203E011F8013B00F8013B51
:10019000521EF9D27047D2B201E000F8012B491E7D
:1001A000FBD270470022F6E710B513460A46044614
:1001B0001946FFF7F0FF204610BD0000064C074D22
:1001C00006E0E06840F0010394E807009847103427
:1001D000AC42F6D3FFF7B0FF3036000850360008C7
:1001E00070B5044600688168C943C90717D18168A2
:1001F00021F00101816000F0FFFE05460AE000BF2A
:1002000000F0FAFE401B022804D920688068C04331
:10021000C00706D020688068C043C007F0D0002027
:1002200070BDA06A40F01000A062E06A40F00100DA
:10023000E062012070BDFEE7014800F098B90000BF
:1002400050010020014800F092B900005001002048
:10025000014800F035BC00000C010020014800F00E
:100260002FBC00004C040020014800F029BC000015
:1002700008040020014800F023BC0000C403002053
:10028000014800F01DBC00008003002030B590F84C
:1002900040500124AC40C56B6C60046863604368E7
:1002A000102B036803D099600068C26030BD9A606B
:1002B0000068C16030BD704772B6FEE7F8B5002433
:1002C000009490F824202546012A12D0012280F8BB
:1002D00024204A681F23072A0DD20668776B521E16
:1002E00002EB820293409F430B6893401F43776366
:1002F00019E00220F8BD06680D2A0AD2376BD21F1A
:1003000002EB820293409F430B6893401F43376385
:1003100009E0F76A0D3A02EB820293409F430B68B3
:1003200093401F43F7620A68072306680A2A0AD324
:10033000F7680A3A02EB420293409F438B6893406E
:100340001F43F76008E0376902EB420293409F4386
:100350008B6893401F4337610A68102A01D0112A25
:1003600020D1124B02689A4217D193681B0219D40C
:10037000936843F4000393600968102912D10C4973
:100380000C4A0968B1FBF2F101EB8101490000E080
:10039000491E00910029FBD104E0816A41F020014F
:1003A0008162012480F824502046F8BD00240140D9
:1003B0000C00002040420F002DE9F04104004FF0F6
:1003C00000057FD0A06A002628B9E66284F8246080
:1003D000204600F081F82046FFF702FFA16AC90617
:1003E00000D420B1A06A40F01000A0626AE0A16AC7
:1003F00021F4885141F00201A162334923688B4204
:10040000E16904D1B1F5402F01D14FF40021277BE0
:100410004FF4807C41EA470261680A43A168614564
:1004200008D0012906D0002194F814E0BEF1010F94
:1004300002D00AE06146F7E7C7B1A76A47F0200794
:10044000A762E76A47F00107E7625F6827F4694738
:100450000F435F60236899681C4F394011439960CE
:10046000A16861450BD0012909D00CE0DFF860E0FC
:10047000A7690EEB47370F4347F40061E5E7218A90
:100480000D05A5F580152168CB6A23F470032B4375
:10049000CB62216889680F4B1940914208D1E6620E
:1004A000A16A21F0020141F00101A162BDE8F081E1
:1004B000A06A20F0020040F01000A062E06A40F064
:1004C0000100E0620120F1E7003C0140FDF7E1FF9F
:1004D00000E0FFFFFE0E1FFF70B586B00026054648
:1004E000009601960296039600681B49884230D117
:1004F0001A49886940F400708861886900F40070C6
:100500000490886940F0040088618869694600F0B9
:10051000040004900120009003200190104800F096
:1005200069FC114C0F48C4E900068020C4E9026050
:1005300040002061800060612020A0614FF44050A5
:10054000E061204600F0E0FB08B1FFF7B5FE2C6249
:10055000656206B070BD000000240140001002403A
:1005600000080140080002400C01002070472DE9FE
:10057000F05F0546006800244669D0F8049087685B
:10058000D0F80CB0D0F810A0D0F81880F10748D0FF
:10059000F90714D001218160B80703D5284600F07F
:1005A000CDF90CE0780702D54FF4006407E0380776
:1005B00002D54FF4805402E0284600F0BEF9F80559
:1005C00016D529684FF480708860B80503D5284691
:1005D00000F0B6F90CE0780502D544F4005407E0C9
:1005E000380502D544F4804402E0284600F0A7F91B
:1005F000F80316D529684FF480308860B80303D516
:10060000284600F09FF90CE0780302D544F400443A
:1006100007E0380302D544F4803402E0284600F0B5
:1006200090F9300707D55FEACB6004D52968102020
:1006300044F40074C86070074FF0080707D55FEAFC
:100640000B7004D52868C760284600F071F9B00720
:1006500006D52868C068800702D0284600F069F9EE
:10066000700607D55FEACA6004D52968102044F4F3
:1006700080640861B00607D55FEA0A7004D528686F
:100680000761284600F056F9F00606D5286800698B
:10069000800702D0284600F04EF9B00308D55FEA83
:1006A000C96005D5296810204860284600F044F943
:1006B000F00307D55FEA097004D52868476028462B
:1006C00000F041F9300446D55FEA497040D5F005A5
:1006D00004D55FEAC87001D044F00104B00504D528
:1006E0005FEA887001D544F00204700504D55FEA22
:1006F000487001D544F00404300529D518F0700F76
:1007000026D008F07000402815D006DC102809D04B
:1007100020280AD0302816D10AE050280ED06028B0
:1007200011D10EE044F008040DE044F010040AE09A
:1007300044F0200407E044F0400404E044F0800466
:1007400001E044F480742868816921F070018161BE
:10075000296804204860002C05D0686A204368623C
:100760002846FFF703FFBDE8F09F70B5040003D0F3
:1007700094F8200010B104E0012070BD204600F084
:1007800081F82068016841F00101016000F034FC4B
:100790000546052604E000F02FFC401B0A2811D86E
:1007A00020684068C007F6D02068016821F0020187
:1007B000016000F021FC05460BE000F01DFC401B31
:1007C0000A2806D9606A40F40030606284F820602C
:1007D000D2E7206840688007EFD4207E0128206897
:1007E00001683DD021F080010160607E0128206811
:1007F000016838D021F040010160A07E0128206806
:10080000016833D021F020010160E07E01282068DA
:1008100001682ED041F010010160207F012820687E
:10082000016829D021F008010160607F012820685B
:10083000016824D021F004010160D4E902010843D9
:10084000D4E90412114308436168491E0843216832
:10085000C86100206062012084F82000002070BD83
:1008600041F08001C0E741F04001C5E741F02001BF
:10087000CAE721F01001CFE741F00801D4E741F0C9
:100880000401D9E710B586B00021009101910291D1
:10089000039100682349884242D12348C16941F04D
:1008A0000071C161C16901F000710491816941F079
:1008B0000401816180691D4C00F0040004904FF434
:1008C000006000906946204600F094FAA014009061
:1008D00002200190032003906946204600F08AFA26
:1008E00000221146132000F0F3FB132000F0E2FB7E
:1008F00000221146142000F0EBFB142000F0DAFB7C
:1009000000221146152000F0E3FB152000F0D2FB79
:1009100000221146162000F0DBFB162000F0CAFB77
:1009200006B010BD00640040001002400008014005
:1009300070477047704770477047704770477047FF
:10094000704770477047704710B590F8211000222B
:10095000022905D00421816380F82020012010BDE8
:1009600001680B6823F00E030B6001680B6823F02D
:1009700001030B6090F84030C46B012101FA03F3CE
:10098000636080F8211080F82020104610BD000020
:100990002DE9F05F90F821100024022903D00421F2
:1009A0008163012485E001680A6822F00E020A6072
:1009B00001680A6822F001020A603F4E3E4FB215FC
:1009C000DFF8F4C0DFF8F090DFF8ECA0DFF8E8B073
:1009D000DFF8E4E00168783F13011502ACF1640C24
:1009E000A9F15009AAF13C0AABF1280BAEF1140EA3
:1009F0004FF48018B14227D9B9420ED0614512D0C8
:100A000049451DD0514518D0594518D0714501D1DF
:100A1000424615E0294EB14201D1012210E0274E95
:100A20001436B14201D110220AE0244E2836B142D8
:100A300006D0224A3C32914201D11A4600E02A46B1
:100A40001E49091F0A602BE0B94213D0614517D037
:100A5000494522D051451DD059451DD0714501D180
:100A600042461AE0B14202D14FF0807215E0134EB7
:100A7000B14201D1012210E0104E1436B14201D131
:100A800010220AE00D4E2836B14206D00B4A3C3205
:100A9000914201D11A4600E02A46074980394A604E
:100AA000012180F82110002180F82010416B01B154
:100AB00088472046BDE8F09F8000024008040240BD
:100AC0002DE9F05FC16B0A6801680B68046C4FF098
:100AD000040808FA04F8844D844E854FDFF814C2E8
:100AE000DFF81492DFF814A2DFF814B2DFF814E292
:100AF00018EA020F65D05FEA437862D50A68920669
:100B000003D40A6822F004020A60DFF8F0814FF48F
:100B10008062016808F1140813011402414524D9C8
:100B2000A9420DD0B1420FD0B9421AD0614515D0BB
:100B3000494515D0514501D1120312E0594501D163
:100B400004220EE0714501D140220AE06D4D1435BA
:100B5000A94206D06B4A2832914201D11A4600E0E0
:100B600022466749091F0A6029E0A94213D0B14211
:100B700015D0B94220D061451BD049451BD0514505
:100B800002D14FF4800217E0414502D14FF080625C
:100B900012E0594501D104220EE0714501D14022F5
:100BA0000AE0584D1435A94206D0564A28329142DF
:100BB00001D11A4600E022464B4908394A60C16A11
:100BC00071E04FF0020808FA04F818EA020F70D03A
:100BD0005FEA83786DD50A68920606D40A6822F027
:100BE0000A020A60012180F82110DFF810814FF419
:100BF0000072016808F1140813011402414524D958
:100C0000A9420DD0B1420FD0B9421AD0614515D0DA
:100C1000494515D0514501D1120312E0594501D182
:100C200002220EE0714501D120220AE0354D143533
:100C3000A94206D0334A2832914201D11A4600E037
:100C400022462F49091F0A6029E0A94213D0B14268
:100C500015D0B94220D061451BD049451BD0514524
:100C600002D14FF4001217E0414502D14FF000725B
:100C700012E0594501D102220EE0714501D1202236
:100C80000AE0204D1435A94206D01E4A283291426E
:100C900001D11A4600E02246134908394A60002172
:100CA00080F82010816A00291CD0BDE8F05F084759
:100CB000FFE70825A540154214D01A0712D50A6887
:100CC00022F00E020A6090F84020C36B012101FA65
:100CD00002F25A60816380F82110002180F8201010
:100CE000016BE0E7BDE8F09F080002401C000240F5
:100CF0003000024044000240580002406C000240B4
:100D0000080402401C04024030B560B11A4B02686E
:100D100014219A4209D2194B1344B3FBF1F1890013
:100D2000016417490AE0012030BD134B5B421344B4
:100D3000B3FBF1F1890001640F490839C163022155
:100D400080F82110136843F6F0718B43F0E9011429
:100D50002143D0E902452C432143046921434469DE
:100D60002143846921431943116000214163012219
:100D700042770177084630BD08040240F8FFFDBF06
:100D80000000024070B5044690F8200000250128BC
:100D90000CD0012084F8200094F821600020012E5E
:100DA00006D084F820000225284670BD022070BDC0
:100DB000022684F82160A0632068066826F00106F8
:100DC00006602046FFF762FAE06A002820680168A2
:100DD00002D041F00E0106E021F00401016020681C
:100DE000016841F00A0101602068016841F00101D9
:100DF0000160D9E72DE9F84FDFF8C8910024A9F187
:100E0000040B23460F2709F1040AABF1040ED1E0CD
:100E10000125A54006EA0502AA4276D1DFF8A8C15D
:100E20004E68A6EB0C0866452BD00DDC032E34D0A3
:100E300005DC36B3012E19D0022E2FD11BE0112E66
:100E400016D0122E2AD119E0B8F5881F19D006DC69
:100E5000B8F5803F15D0B8F5801F1FD111E0B8F567
:100E6000001F0ED0B8F5041F18D10AE0CB6815E0BA
:100E7000CB681B1D12E0CB6808330FE0CB680C3346
:100E80000CE08B682BB1012B4FF0080303D04561B8
:100E900004E0042302E0056100E00023FF2A01D8FA
:100EA000064601E000F104064FEA840501D9A5F1E8
:100EB0002005D6F8008007FA05FC28EA0C0803FA9A
:100EC00005F548EA0508C6F800804D68ED0070D5C4
:100ED0003E4DAE6946F00106AE61AD6924F00306F1
:100EE00005F0010500953A4D06EB050CDCF80850BD
:100EF000A607360F07FA06F825EA0805DFF8D480BA
:100F0000404503D14FF0000825E052E0DFF8C880EB
:100F1000404502D14FF001081DE0DFF8C080404598
:100F200002D14FF0020816E0DFF8B480404502D14C
:100F30004FF003080FE0DFF8AC80404502D14FF0DE
:100F4000040808E0DFF8A080404502D14FF0050812
:100F500001E04FF0060808FA06F848EA0508CCF860
:100F600008804D68D9F80060ED024D4601D5164362
:100F700000E096432E604D68DAF80060AD025546F9
:100F800001D5164300E096432E604D68DBF8006003
:100F9000AD035D4601D5164300E096432E604D68D3
:100FA000DEF80060ED03754601D5164300E0964378
:100FB0002E60641C0A681646E2407FF429AFBDE843
:100FC000F88F0000080401400000111000100240DA
:100FD0000000014000080140000C014000100140E9
:100FE0000014014000180140001C01400AB10161D9
:100FF00070470904FBE70000014880687047000063
:101000000000002002488168027811448160704726
:1010100000000020074810B5016841F01001016090
:10102000032000F075F80F2000F006F800F024F817
:10103000002010BD0020024070B50D4D04464FF455
:101040007A712878B1FBF0F00A490968B1FBF0F039
:1010500000F0E4FB48B9102C07D200222146501EB4
:1010600000F036F800206C6070BD012070BD0000FB
:10107000000000200C0000200C4808B5816941F0F8
:1010800001018161816901F001010091C16941F0B3
:101090008051C161C06900F08050009004484168EF
:1010A00021F0E06141F00071416008BD0010024094
:1010B00000000140002809DB00F01F0201219140DF
:1010C0004009800000F1E020C0F8001170470000E6
:1010D000F0B40E4B1B680C46C3F30223C3F10705A3
:1010E000042D00D90425191D072901D2002300E091
:1010F000DB1E012606FA05F1491E214099409E405B
:10110000761E16403143F0BC01F07DBF0CED00E0CF
:10111000064900F0070208684FF6FF03184040EA4E
:101120000220034A10430860704700000CED00E005
:101130000000FA052DE9F84305460078354CC00754
:1011400054D0E0690026C00008D4E06940F0805027
:10115000E061E069012600F0805000902E480168AF
:10116000C90512D40168804641F480710160FFF71F
:1011700043FF074605E000BFFFF73EFFC01B6428A2
:1011800023D8D8F80000C005F6D5206A10F44070C6
:1011900021D0A98801F4407181421CD0206A1F49E6
:1011A000012220F440700A6000220A602062C00719
:1011B00011D0FFF721FF074641F2883808E000BF51
:1011C000FFF71AFFC11B414502D90320BDE8F88390
:1011D000206A8007F4D5206A696820F440700843CB
:1011E00020621EB1E06920F08050E061287880071D
:1011F00005D56068A96820F44040084360602878FD
:10120000C00605D56068696920F480000843606005
:101210000020DBE700100240007000404004424222
:101220002DE9F0470F46050061D0434E306800F0CD
:101230000700B84209D2306820F007003843306018
:10124000306800F00700B84251D128683B4C810754
:1012500012D5400703D5606840F4E06060602878EC
:10126000000703D5606840F4605060606068A9685A
:1012700020F0F000084360602878C00728D0686834
:10128000012810D02168022810D0890700292EDA01
:10129000616821F0030101436160FFF7ADFE804604
:1012A00041F288390DE021688903EFE78901EDE714
:1012B000FFF7A2FEA0EB0801494502D90320BDE8D3
:1012C000F0876068696800F00C00B0EB810FEFD127
:1012D000306800F00700B8420BD9306820F00700F2
:1012E00038433060306800F00700B84201D0012078
:1012F000E5E72878400705D56068E96820F4E060F4
:10130000084360602878000706D56068296920F4E2
:10131000605040EAC100606000F038F86168084A37
:10132000C1F30311515CC8400649086006480068D3
:10133000FFF782FE0020C2E70020024000100240BA
:10134000163600080C00002004000020044805495F
:1013500000684968044AC1F30221515CC8407047E3
:101360000C00002000100240263600080448054901
:1013700000684968044AC1F3C221515CC840704703
:101380000C00002000100240263600080E4A51686A
:101390000E4801F00C03042B11D0082B0FD10C4880
:1013A000C1F38343C903C05C0AD55168084AC1F33D
:1013B0004041921E515C054A5043B0FBF1F070472A
:1013C00004494843704700000010024000127A00B0
:1013D0000636000800093D002DE9F84F040070D0E2
:1013E0002078C04DC00749D06868C0F3810001284B
:1013F00007D06868C0F38100022809D16868C0037B
:1014000006D52868800339D560680028E7D035E024
:101410006068B0F5803F0BD010B1B0F5A02F11D0AF
:10142000286820F480302860286820F4802002E0BA
:10143000286840F480302860606890B1FFF7DCFDD8
:1014400006460AE0286840F480202860F0E700BFE4
:10145000FFF7D2FD801B642873D828688003F7D576
:101460000CE0FFF7C9FD064605E000BFFFF7C4FD2D
:10147000801B6428F0D828688003F7D420789A4E1F
:1014800080074FF001094FF0000839D5686810F067
:101490000C0F07D06868C0F38100022809D1686882
:1014A000C00306D42868800714D52069012808D114
:1014B00010E02069B0B1C6F80090FFF79DFD074627
:1014C00005E00AE1FFF798FDC01B0228C4D8286890
:1014D0008007F7D52868616920F0F80040EAC1006C
:1014E00028600DE0C6F80080FFF786FD074604E09F
:1014F000FFF782FDC01B022823D828688007F7D495
:10150000207800072CD57948A169D9B1C0F800909E
:10151000FFF772FD074604E0FFF76EFDC01B0228CF
:101520000FD8686A8007F7D571484FF4FA51006800
:10153000B0FBF1F0009000BF0098411E0091FAD27C
:101540000EE080E0C0F80080FFF756FD074604E09B
:10155000FFF752FDC01B022875D8686A8007F7D4D0
:101560002078400760D5E8690027C00008D4E86902
:1015700040F08050E861E869012700F08050009059
:101580005C480168C90513D40168834641F4807141
:101590000160FFF731FD824606E000BFFFF72CFD3A
:1015A000A0EB0A0064284ED8DBF80000C005F5D592
:1015B000E06801280AD008B1052813D0286A20F075
:1015C00001002862286A20F0040002E0286A40F046
:1015D00001002862E06841F2883B98B1FFF70CFDFA
:1015E00082460BE0286A40F004002862EEE700BF64
:1015F000FFF702FDA0EB0A0159455AD8286A800777
:10160000F6D50CE0FFF7F8FC824605E0FFF7F4FCA6
:10161000A0EB0A0159454CD8286A8007F6D41FB1BF
:10162000E86920F08050E861E06988B36968C1F337
:101630008101022944D00228C6F8608004D0FFF757
:10164000DBFC044638E034E0FFF7D6FC074604E054
:10165000FFF7D2FCC01B02282BD828688001F7D4E2
:10166000206AB0F5803F05D16868A16820F4003099
:1016700008436860D4E908010843696821F47411DB
:1016800008436860C6F86090FFF7B6FC044606E0C1
:1016900025E000BFFFF7B0FC001B022809D828682E
:1016A0008001F7D51BE000BFFFF7A6FC001B022856
:1016B00002D90320BDE8F88F28688001F4D40EE039
:1016C0000128F7D06868226A00F48031914204D181
:1016D000616A00F47010884201D00120EAE700201E
:1016E000E8E700000010024000004242800442424D
:1016F0000C0000200070004070B5040009D0606A42
:10170000002540B125616561A56294F8510040B1A2
:101710000CE0012070BD6068B0F5827FF4D0E56117
:10172000F2E784F85050204600F040F8022084F898
:1017300051002068016821F040010160A0882189E2
:1017400000F4827001F404410843A18901F40061AE
:101750000843217C01F002010843217D01F00101D1
:101760000843218B01F400710843217F01F0380107
:10177000084394F8201001F080010843218D01F402
:101780000051084321680860A069042101EA104063
:10179000216848602068C16921F40061C161656504
:1017A000012084F85100002070BD000030B585B0E4
:1017B0000024009401940294039400681449884220
:1017C00023D11448816941F480518161816901F418
:1017D00080510491816941F00401816180690E4D5D
:1017E00000F004000490A02000900220019003204B
:1017F000039069462846FFF7FDFA4020CDE9000432
:10180000694628460294FFF7F5FA05B030BD00009E
:1018100000300140001002400008014010B5401E99
:10182000B0F1807F01D3012010BD4FF0E024606152
:101830000F21601701F0E7FB0020A0610720206165
:10184000002010BD7047704770B590F83C20012A09
:101850002CD0012480F83C40022280F83D2003680F
:101860005A689D6822F070060A6832435A60104B2D
:1018700002689A420ED00F4B9A420BD0B2F1804FC1
:1018800008D00D4B9A4205D00C4B9A4202D00C4B1B
:101890009A4204D1496825F080031943916080F889
:1018A0003D40002180F83C10084670BD022070BD0C
:1018B000002C0140003401400004004000080040BA
:1018C000000C004010B5040003D094F83D0010B1A6
:1018D00007E0012010BD002084F83C00204600F005
:1018E0001FF8022084F83D00211D206800F076FFDB
:1018F000012084F8460084F83E0084F83F0084F814
:10190000400084F8410084F8420084F8430084F8E1
:10191000440084F8450084F83D00002010BD00001C
:1019200008B5234A0168234891420ED1816941F4E8
:10193000006181618069002200F40060009011461E
:101940001920FFF7C5FB19202EE0B1F1804F11D00F
:10195000194A914217D1C16941F00201C161C069C0
:10196000002200F00200009002211D20FFF7B0FBD2
:101970001D2019E0C16941F00101C161C06900F099
:101980000100009008BD0D4A9142FBD1C16941F0B0
:101990000401C161C069002200F0040000901146FA
:1019A0001E20FFF795FB1E20BDE80840FFF782BB15
:1019B000002C0140001002400004004000080040DC
:1019C00070B5044690F83C000025012817D0012688
:1019D00084F83C60022084F83D002068826822F090
:1019E000770222F47F4282600868502838D00DDCEC
:1019F00020284FD005DC90B3102811D14AE00220F6
:101A000070BD302846D040280AD13BE060282FD056
:101A100070280DD0B0F5805F03D0B0F5005F12D014
:101A2000012584F83D60002084F83C00284670BD04
:101A3000CB68D1E90121206800F01EFF2068816891
:101A400041F0770109E0CB68D1E90121206800F07D
:101A500013FF2068816841F480418160E1E719E06B
:101A6000CA684968206800F0DBFF5021206806E062
:101A7000CA684968206800F0E4FF6021206800F02F
:101A800005FFCEE7CA684968206800F0C9FF402119
:101A90002068F4E7226801461046F0E770472DE918
:101AA000F04104460068C66805694FF00007A907C1
:101AB00013D5B10711D5F91E0161012020772068E7
:101AC00080698007204602D0FFF7E8FF04E000F0BD
:101AD000AFF8204600F041F92777680716D5700760
:101AE00014D521686FF00400086102202077206877
:101AF000806910F4407F204602D0FFF7CFFF04E05A
:101B000000F096F8204600F028F92777280715D529
:101B1000300713D521686FF0080008610420207792
:101B20002068C0698007204602D0FFF7B7FF04E0B5
:101B300000F07EF8204600F010F92777E80616D569
:101B4000F00614D521686FF0100008610820207796
:101B50002068C06910F4407F204602D0FFF79EFF46
:101B600004E000F065F8204600F0F7F82777E80772
:101B700008D0F00706D021686FF001000861204608
:101B800000F0ECF8280608D5300606D521686FF07D
:101B9000800008612046FFF755FE680608D57006EC
:101BA00006D521686FF040000861204600F0D7F8A4
:101BB000A8060AD5B00608D521686FF02000086194
:101BC0002046BDE8F041FFF73EBEBDE8F0810000D1
:101BD00000B585B000210091019102910391006848
:101BE000B0F1804F1BD10F48816941F0080181613C
:101BF0008069694600F0080004904FF4406000904E
:101C00000220019003900848FFF7F4F80748416864
:101C100021F4407141F0E06141F40071416005B090
:101C200000BD000000100240000C01400000014017
:101C3000704770B5044690F83C0000260D46012818
:101C40000FD0012084F83C006AB1042A1DD0082A74
:101C50002FD00C2A3FD00126002084F83C003046CB
:101C600070BD022070BD206800F018FE20688169F8
:101C700041F0080181612068816921F004018161DE
:101C8000206881692A69114311E0206800F036FE5E
:101C90002068816941F4006181612068816921F4D3
:101CA00080618161206881692A6941EA022181613C
:101CB000D2E7206800F058FE2068C16941F00801B1
:101CC000C1612068C16921F00401C1612068C16956
:101CD0002A69114311E0206800F07AFE2068C1698A
:101CE00041F40061C1612068C16921F48061C16172
:101CF0002068C1692A6941EA0221C161ACE710B5D7
:101D0000040003D094F83D0010B107E0012010BD9D
:101D1000002084F83C00204600F01EF8022084F8E1
:101D20003D00211D206800F059FD012084F8460087
:101D300084F83E0084F83F0084F8400084F84100B5
:101D400084F8420084F8430084F8440084F8450095
:101D500084F83D00002010BD704770477047704701
:101D600070477047F8B5016804460868CA684B694F
:101D700010F00F0F4FF0000559D003F0010602F4E8
:101D80009077374365D0C10705D0D10503D5616C85
:101D900041F001016164410705D5D90703D0616CA9
:101DA00041F002016164810705D5D90703D0616C58
:101DB00041F004016164010707D502F020013143BD
:101DC00003D0616C41F008016164616C00293AD074
:101DD000800604D5900602D5204600F01EFF20683C
:101DE0004069616CC0F38010090700D460B32046DD
:101DF00000F0DEFE20684069400621D520681430DE
:101E000050E8001F21F0400140E80012002AF5D1FF
:101E1000E06BA8B16D494163E06BFEF7B9FD0028A6
:101E200011D0E06B416B01B0BDE8F040084783067C
:101E30000FD593060DD52046BDE8F84000F0EDBE65
:101E40002046FFF78EFFF8BD2046FFF78AFF656446
:101E5000F8BD266B2023012E7CD1C6067AD5D60686
:101E600078D508684868009048694FF00206400637
:101E700040D5E16B086840680004000CE8D0A28DF2
:101E80008242E5D9E085886920282DD020680C3071
:101E900050E8001F21F4807140E80012002AF5D1BB
:101EA0002068143050E8001F21F0010140E80012C2
:101EB000002AF5D12068143050E8001F21F04001BD
:101EC00040E80012002AF5D184F8423025632068EA
:101ED0000C3050E8001F21F0100140E80012002AE9
:101EE000F5D1E06BFEF730FD6663A08DE18D401A01
:101EF00081B22AE0A08DE18D401A81B2E08D0028E8
:101F0000A6D00029A4D022680C3252E8000F20F499
:101F1000907042E80007002FF5D12068143050E897
:101F2000002F22F0010240E80027002FF5D184F8AD
:101F30004230256320680C3050E8002F22F0100258
:101F400040E80023002BF5D166632046FFF708FF29
:101F5000F8BDFFE705062BD5150629D594F84100F5
:101F60002128F5D1A068B0F5805F01D12069B0B11A
:101F7000206A411C2162216800784860E08C401E84
:101F80000004000CE084E3D12068C16821F08001E6
:101F9000C1602068C16841F04001C160D8E7206A93
:101FA0000088C0F308004860206A801C2062E5E7D2
:101FB0004006CDD55006CBD5CA68204622F0400257
:101FC000CA6084F8413000F05DF9C1E7672A000873
:101FD00070B5040004D094F84100002510B106E06B
:101FE000012070BD84F84050204600F023F82420E2
:101FF00084F841002068C16821F40051C160204686
:1020000000F06CFE2068016921F4904101612068B4
:10201000416921F02A0141612068C16841F4005101
:10202000C1606564202084F8410084F84200656343
:10203000002070BD2DE9F04F85B000250095019579
:1020400002950395044603686148DFF880C10221C8
:102050000322061580274FF020094FF0100A4FF495
:10206000005B634550D1836943F480438361836996
:1020700003F480430493836943F00403836180691C
:10208000DFF8508100F0040004900802CDE900015F
:10209000039269464046FEF7ADFECDE9006569460C
:1020A00040460295FEF7A6FE4C4E4B48B846C6E9A0
:1020B0000005C6E90257C6F81CB03561C6E90559E6
:1020C0005F463046FEF720FE08B1FEF7F5F8E663FE
:1020D0007462424E404844361438C6E902583561AD
:1020E0007561C6E9000AC6E906573046FEF70CFEE0
:1020F00008B1FEF7E1F8A6630022114625207462BC
:10210000FEF7E6FF25205CE0DFF8D4C063455AD136
:10211000C36943F48023C361C36903F48023049338
:10212000836943F0100383618069CDE9006100F0A9
:102130001000CDE903202B4E69463046FEF75AFECB
:10214000F014CDE90005694630460295FEF752FECF
:102150002548416821F0300141F0E06141F0100173
:1021600041601E4E1C4888362838C6E90005C6E97D
:10217000025735614FF440507561C6E9069030460C
:10218000FEF7C2FD08B1FEF797F8E6637462134EDE
:102190001148CC363C38C6E9025735617561C6E94D
:1021A000000AC6E9065B3046FEF7AEFD08B1FEF751
:1021B00083F8A6630022114627207462FEF788FF89
:1021C0002720FEF777FF05B0BDE8F08F003801400B
:1021D0000010024000080140580002408003002027
:1021E00000480040001001400000014090F84230DB
:1021F000202B01D00220704721B11AB100230363C4
:1022000000F0C8BD012070477047704770B50446A4
:1022100090F84100202801D0022070BD49B342B39C
:102220002162A284E28400206064212384F841308A
:10223000A56B114BAB62A56B104BEB62A56B104B02
:102240002B63A36B5863256813462A1DA06BFEF70A
:1022500099FD21686FF0400008602068143050E854
:10226000001F41F0800140E80012002AF5D1002053
:1022700070BD012070BD0000652B0008A72B000871
:10228000772A000800680549884205D104490020E2
:1022900081F8060100F03CBE704700000048004095
:1022A000960600207047FEE73EB5002410480094D3
:1022B000019402940D498460016004730475012542
:1022C00005614FF460214460C161FEF775F808B103
:1022D000FDF7F2FFCDE90045694605480294FDF798
:1022E000EDFF002801D0FDF7E7FF3EBD00240140CF
:1022F000DC0000200D4810B50B4901601021416041
:1023000000218160C1600161416101764176817681
:10231000C17601774177FEF728FA002803D0BDE89F
:102320001040FDF7C9BF10BD0064004050010020FF
:10233000194808B5416941F0010141614069002235
:1023400000F00100009011460B20FEF7C1FE0B20AB
:10235000FEF7B0FE002211460C20FEF7B9FE0C205D
:10236000FEF7A8FE002211460D20FEF7B1FE0D205B
:10237000FEF7A0FE002211460E20FEF7A9FE0E2059
:10238000FEF798FE002211460F20FEF7A1FEBDE8E1
:1023900008400F20FEF78EBE001002402DE9F047E6
:1023A00086B0002435480094019402940394816916
:1023B00041F020018161816901F02001049181696E
:1023C00041F010018161816901F01001049181697E
:1023D00041F004018161816901F004010491816986
:1023E00041F0080181618069254F00F008000490E8
:1023F00000220C213846FEF7F9FDDFF88890002214
:1024000016214846FEF7F2FDDFF87CA04FF4405855
:10241000002241465046FEF7E9FD0C200125022628
:10242000CDE90005CDE9024669463846FEF7E2FCF3
:10243000062700970396CDE9015469464846FEF702
:10244000D9FC1020CDE900050320CDE90240694602
:102450004846FEF7CFFCCDE9007469465046029429
:10246000FEF7C8FCCDF800800396CDE9015469461B
:102470005046FEF7BFFC06B0BDE8F08700100240F2
:102480000010014000080140000C01400F4810B549
:102490000D4901604FF48271416000218160C1608B
:1024A0004FF400720161C0E90512C161016241622D
:1024B00081620A21C162FFF71FF9002803D0BDE83D
:1024C0001040FDF7F9BE10BD00300140780100203A
:1024D00010B586B000241848009401940294039427
:1024E00004941449059401604721C0E9011442F2A3
:1024F0000F71C0E903148021C0E90541FFF7E2F93B
:1025000008B1FDF7D9FE4FF48050009069460A48A3
:10251000FFF756FA08B1FDF7CFFE049404A9064868
:102520000594FFF791F9002801D0FDF7C5FE06B02C
:1025300010BD0000002C0140D001002010B58EB06D
:1025400000240794089409940A940B941C2168466B
:102550000C94FDF727FE21484FF08041C0E900149C
:1025600040F2FF31C0E9024104618461FFF7AAF93A
:1025700008B1FDF7A1FE4FF48050079007A9174856
:10258000FFF71EFA08B1FDF797FE1448FFF7B7FBF7
:1025900008B1FDF791FE0B940BA910480C94FFF7BE
:1025A00053F908B1FDF788FE6020CDE900040294DC
:1025B0000822694609480494FFF73BFB08B1FDF780
:1025C0007BFE0C2269460548FFF733FB08B1FDF797
:1025D00073FE0248FFF7FCFA0EB010BD180200208F
:1025E00010B586B000241748009401940294039417
:1025F000049413490594016040F60F61C0E9011489
:102600002321C0E903148461FFF75CF908B1FDF7E9
:1026100053FE4FF48050009069460A48FFF7D0F906
:1026200008B1FDF749FE049404A906480594FFF794
:102630000BF9002801D0FDF73FFE06B010BD0000E9
:10264000000400406002002010B586B00024174846
:102650000094019402940394049413490594016036
:102660004721C0E901143121C0E9031480218161AF
:10267000FFF728F908B1FDF71FFE4FF480500090D6
:1026800069460A48FFF79CF908B1FDF715FE049466
:1026900004A906480594FFF7D7F8002801D0FDF7F4
:1026A0000BFE06B010BD000000080040A80200208C
:1026B0000C4810B50A4901604FF4E1314160002136
:1026C00081600C22C160C0E904128161C161FFF721
:1026D0007FFC002803D0BDE81040FDF7EDBD10BD24
:1026E00000380140F00200200C4810B50A49016092
:1026F0004FF4E1314160002181600C22C160C0E9EA
:1027000004128161C161FFF763FC002803D0BDE8BA
:102710001040FDF7D1BD10BD004800403803002037
:10272000FEE7FEE770477047FEF76CBC30B595B02A
:1027300028216846FDF736FD14210AA8FDF732FD71
:1027400018210FA8FDF72EFD012002250490009509
:1027500010200024059007946846FEF73DFE08B15E
:1027600072B6FEE70F20CDE90A040C940D94002107
:102770000AA80E94FEF754FD08B172B6FEE70FA842
:102780000F951194FEF7D6FC002801D072B6FEE733
:1027900015B030BD704700000148FFF780B9000058
:1027A000D00100200148FFF77AB900006002002044
:1027B0000148FFF774B90000A8020020054800682E
:1027C0000169C90705D06FF0010101610248006885
:1027D00000477047600200203C000020F0B502680E
:1027E000204C214D214E224F224B4FF0804CA042D5
:1027F00009D0984207D0604505D0A84203D0B04226
:1028000001D0B84204D122F0700E4A6842EA0E02AA
:10281000A04209D0984207D0604505D0A84203D015
:10282000B04201D0B84203D122F44075CA682A43AD
:102830004D6922F080022A4302608A68C2620A68F7
:102840008262A04201D0984201D10969016301214D
:1028500041610169C90703D0016921F001010161EA
:10286000F0BD0000002C01400004004000080040C2
:10287000000C00400034014010B5846842EA032295
:1028800024F47F440A432243826010BD826822F010
:1028900070020A4342F0070181607047F0B5036A95
:1028A000026A22F00102026242688469124E24F038
:1028B00073050C682C4323F002058B682B430D4DE8
:1028C000A84201D0B04205D123F00807CB683B43B2
:1028D00023F00403A84201D0B04205D14D6922F48F
:1028E000407215438A692A434260846149684163A2
:1028F0000362F0BD002C014000340140F0B5026AD3
:10290000036A23F010030362436884690D6824F4AA
:10291000E64444EA05248D6822F0200242EA0512CA
:102920000F4D104EA84201D0B04206D1CF6822F020
:10293000800242EA071222F04002A84201D0B042CF
:1029400007D14D6923F4406343EA85038D6943EA67
:10295000850343608461496881630262F0BD0000C1
:10296000002C014000340140F0B5026A036A23F4F0
:10297000807303624368C46922F4007224F0730513
:102980000C68124E2C438D6842EA05220E4DA84277
:1029900001D0B04206D1CF6822F4006242EA072299
:1029A00022F48062A84201D0B04207D14D6923F4DD
:1029B000405343EA05138D6943EA05134360C4613C
:1029C0004968C1630262F0BD002C0140003401403F
:1029D00030B5046A026A22F4805202624268C36916
:1029E0000D6823F4E64343EA05238D6824F400547C
:1029F00044EA0534084DA84202D0084DA84204D14B
:102A00004D6922F4804242EA85124260C3614968FE
:102A10000164046230BD0000002C0140003401401C
:102A200010B5036A046A24F001040462846924F086
:102A3000F00444EA021423F00A020A4384610262A9
:102A400010BD10B5036A046A24F01004046284699E
:102A500023F0A00324F4704444EA023243EA011153
:102A60008261016210BD10B5406A0021C185C18438
:102A7000FFF777F910BD70B5446A2068406994F893
:102A80004110C0F3C0100025212904D118B1E584FC
:102A9000204600F0B4F82068406994F84210C0F372
:102AA0008010222904D118B1E585204600F080F875
:102AB000606C40F0100060642046FFF752F970BD72
:102AC00010B50146406A096809684FF0000289069E
:102AD0002ED4C28501680C3151E8003F23F4807385
:102AE00041E80034002CF5D10168143151E8003F71
:102AF00023F0010341E80034002CF5D101681431C2
:102B000051E8003F23F0400341E80034002CF5D1A8
:102B1000202180F84210016B012909D101680C3194
:102B200051E8003F23F0100341E80034002CF5D1B8
:102B30004263016B012902D0FFF766FB10BD818D56
:102B4000FFF70EF910BD10B5406A01214163016B1A
:102B5000012902D0FFF759FB10BD818D4908FFF70D
:102B6000FFF810BD10B50146406A0968096889067A
:102B700016D40021C1840168143151E8002F22F0DD
:102B8000800241E80023002BF5D101680C3151E8A7
:102B9000002F42F0400241E80023002BF5D110BD88
:102BA000FFF770FB10BD10B5406AFFF77BFB10BD4F
:102BB00001680C3151E8002F22F4907241E80023A3
:102BC000002BF5D10168143151E8002F22F00102E9
:102BD00041E80023002BF5D1016B012909D10168DF
:102BE0000C3151E8002F22F0100241E80023002BA5
:102BF000F5D1202180F8421000210163704701685F
:102C00000C3151E8002F22F0C00241E80023002BD4
:102C1000F5D1202180F84110704708B590F8421096
:102C2000222901D0022008BD82684FF480539A42C5
:102C300001D1016921B1816A9A421BD04AB10AE0EF
:102C40000268816A5268C2F308020A80816A891C9C
:102C500008E0026972B10268526802F07F020A70ED
:102C6000816A491C8162C18D491E0904090CC18514
:102C700003D01BE002685268F1E70168CA6822F0DD
:102C80002002CA600168CA6822F48072CA600168C2
:102C90004A6922F001024A61202180F84210002195
:102CA0004163026B012A03D0FFF7AEFA002008BD92
:102CB000016301680C3151E8002F22F0100241E855
:102CC0000023002BF5D101680A68D20602D50A68F4
:102CD00049680091818DFFF743F8E7E770B5044636
:102CE00000680169E26821F44051114301612169E2
:102CF000A0680843616908432168CA6841F20C630F
:102D00009A430243CA6020684169A26921F4407174
:102D1000114341611E492068884202D1FEF726FB1B
:102D200001E0FEF713FB00EBC00101EB001260684D
:102D300064218000B2FBF0F3B3FBF1F36FF01806EF
:102D40007343B2FBF0F5B2FBF0F605EB83053223DB
:102D500003EB0515B5FBF1F5B6FBF1F605F0F00553
:102D600005EB0615B2FBF0F6B2FBF0F0B0FBF1F0AC
:102D70006FF01802504306EB800003EB0010B0FB2D
:102D8000F1F0216800F00F002844886070BD000059
:102D90000038014038B58162044682850020134620
:102DA0006064222284F84220E56B1B4AAA62E56B2C
:102DB0001A4AEA62E56B1A4A2A63E26B50630A46D2
:102DC0002168E06B091DFDF7DDFF206801684068A0
:102DD0000090206948B120680C3050E8001F41F491
:102DE000807140E80012002AF5D12068143050E8C4
:102DF000001F41F0010140E80012002AF5D12068CF
:102E0000143050E8001F41F0400140E80012002A51
:102E1000F5D1002038BD0000C12A0008472B00086A
:102E2000772A00080148FEF79DBF0000F00200204D
:102E300010B500F037F8BDE810400148FEF792BF2A
:102E4000380300200148FDF792BB0000500100202C
:102E50000148FDF78CBB00005001002010B50D4863
:102E600000F09EF80C48002404800C4800F098F80C
:102E70000A4880F80641A0F580714FF48072084836
:102E8000FFF7B4F906480068C16841F01001C1605D
:102E900010BD0000900400201000002096060020C5
:102EA0003803002038B5164908680268D243D206B4
:102EB00024D4026840680090C86B00684068114DD7
:102EC00080B2C0F5807084B228880F4984420144E2
:102ED00001F5837104D9A4EB000082B20A480AE02C
:102EE0000BD2C0F5807082B2074800F061F824B1BF
:102EF00022460649044800F05BF82C8038BD0000EB
:102F000038030020100000209004002096050020C7
:102F100070B5104C94F80601002819D1204600F035
:102F20001FF8020014D04FF48070824200D902468C
:102F3000094908480D4600F016F8020008D00120A3
:102F400084F806012946BDE870400448FFF75EB9E1
:102F500070BD0000960600209D0700203803002069
:102F6000B0F80401704710B5B0F80431934200D2B4
:102F70001A4600230BE0B0F80241045DCC5490F8EF
:102F80000241641CE4B25B1CA0F802419BB2934274
:102F9000F1D3B0F80411891AA0F80411104610BD3D
:102FA0000021A0F80011A0F80211A0F80411704748
:102FB00030B5B0F80431C3F580739BB29A4200D9A2
:102FC0001A4600230BE0B0F80051CC5C445590F851
:102FD0000041641CE4B25B1CA0F800419BB2934228
:102FE000F1D3B0F804111144A0F80411104630BD1B
:102FF00000234FF4806219460148FDF7B7B800007E
:10300000D8000020FEE70907090E002804DB00F1C4
:10301000E02080F80014704700F00F0000F1E0207D
:1030200080F8141D704702E008C8121F08C1002A6A
:10303000FAD170477047002001E001C1121F002A39
:10304000FBD1704770B50C460988002505292FD1A2
:10305000417840F2CF760A0281781143C278491C48
:103060001302027989B21A43531EB34220D20023BD
:103070002380012300F8013B2688761C2680560712
:1030800003D003EBD203DEB201E0C2F3C70600F8BF
:10309000016B23885B1C2380002300F0A3F918B187
:1030A00000F0A4FA054604E020883044208000E0C7
:1030B0000325284670BD70B50C46098800250529F2
:1030C0002FD1417840F2CF760A0281781143C2783D
:1030D000491C1302027989B21A43531EB34220D20B
:1030E00000232380022300F8013B23885B1C2380FC
:1030F000530704D0012303EBD203DEB201E0C2F395
:10310000C70600F8016B23885B1C238000F0B8F928
:1031100018B100F06BFA054604E0208830442080A6
:1031200000E00325284670BD70B50C4609880026CE
:10313000052925D1417805790A0281781143491C76
:103140006A1E89B27C2A1BD800222280032200F842
:10315000012B22880023521C22806A0000F8012BD8
:103160002288521C22802A4600F0CAF918B100F0C9
:103170003DFA064605E0208800EB4500208000E08F
:103180000326304670BD70B50C4609880026052917
:1031900027D1417805790A0281781143C278491C08
:1031A00045EA02256A1E89B27C2A1AD200222280B0
:1031B000042200F8012B2288521C22806A0000F8A9
:1031C000012B2288521C22802A4600F0C5F918B132
:1031D00000F00CFA064605E0208800EB4500208050
:1031E00000E00326304670BD2DE9F0410446088812
:1031F00000270D460A2842D3607826790102A0787C
:10320000227A0843401C1FFA80F8E07846EA00263C
:103210006079731E0102A0790843401C81B2E079F5
:103220007C2B42EA0022607A28D83AB3792A25D842
:10323000B0EB420F22D1012304F10A0000F060F943
:1032400098B900212980172121702988601C491C08
:103250002980710000F8011B29880023491C29805E
:103260003246414600F04CF918B100F0BFF907466C
:1032700005E0288800EB4600288000E00327384658
:10328000BDE8F08170B5064C0D4606492288401C09
:10329000FCF76FFF2088401C2880002070BD0000D4
:1032A000C00000209E08002038B5098800240529A8
:1032B0000BD141780A0281781143491C027989B205
:1032C0001AB9C278FF2A03D012B10324204638BDB0
:1032D00000228DF80120C078FF280CD08DF8002046
:1032E00001231A46684600F07DF80028EED000F071
:1032F0007DF90446EAE701208DF80000F0E710B5FB
:1033000009880024052902D00324204610BD4178F5
:1033100001230A028178C01C1143491C89B21A4654
:1033200000F0EEF80028F0D000F060F90446ECE779
:103330002DE9F0410D4609880024052926D9417858
:1033400043790A0281781143491C8EB2C17802790F
:1033500042EA0122510704D0012101EBD201C9B296
:1033600001E0C2F3C701571EB7F5F66F0ED29942BE
:103370000CD101233146801D00F034F818B100F063
:1033800035F9044603E00520288000E003242046A8
:10339000BDE8F08170B50D460988002406291DD3CB
:1033A00041780A0281781143C278491C13020279DC
:1033B00089B21A434379561E772E0FD85606360E19
:1033C0009E420BD10123801D00F09AF818B100F045
:1033D0000DF9044603E00520288000E00324204680
:1033E00070BD0000F0B5491E89B28C180A2C01D9B5
:1033F0000120F0BD541EE51704EB5575012404EBC4
:10340000E5061E4D012B18D1F4B213E010F8016B44
:1034100000230AE026FA03F707F001076F54491C5E
:10342000521E5B1C89B292B2DBB20AB1082BF1D3F7
:10343000641EE4B2002CE9D11EE016F0FF061BD09A
:1034400000273B4611E000BF15F801E0BEF1000F78
:1034500005D004FA03FC4CEA070C0CF0FF07521EDF
:10346000491C5B1C92B289B2DBB20AB1082BEBD3C8
:1034700000F8017B761EE0E70020F0BDC2000020CE
:10348000F0B5491E8CB2A1180A2901D90120F0BD5E
:10349000511ECB1701EB5371012505EBE101CEB2B3
:1034A00016491BE000273B4611E000BF11F804E07D
:1034B000BEF1000F05D005FA03FC4CEA070C0CF036
:1034C000FF07521E641C5B1C92B2A4B2DBB20AB1AD
:1034D000082BEBD3761E00F8017BF6B2002EE1D16B
:1034E00000200A5C3AB100220A54401C80B20A282B
:1034F000F7D30020F0BD0122F6E70000CC00002049
:1035000010B5491E89B28C180A2C01D9012010BDB2
:10351000104C012B09D018E030F8023B5BBA24F8BC
:103520001130491C521E89B292B2002AF4D10EE029
:1035300034F811301B0A00F8013B14F81130491C13
:10354000521E00F8013B89B292B2002AF0D100204D
:1035500010BD0000BE080020491E10B58BB29C189B
:1035600010490A2C0FD9012010BD00BF31F81340BB
:10357000240A00F8014B11F813405B1C521E00F89E
:10358000014B9BB292B2002AF0D1002031F81020FA
:10359000521C21F81020401C80B20A28F6D30020CB
:1035A00010BD0000D2080020FFF722FDFFF756FCF7
:1035B000FEE7FDF72FFDFFF7B9F8FEF7EFFEFEF788
:1035C000B7FEFEF771FEFEF795FEFEF75FFFFEF712
:1035D0007FFFFEF7B3FFFFF737F8FFF769F8FFF754
:1035E00083F8FEF7FDFFFFF7DFFFFEE7002804D0BA
:1035F000012803D0072803D0042070470220704719
:1036000006207047010202030405060708090A0B99
:103610000C0D0E0F10100000000000000000010251
:10362000030406070809000000000102030400006B
:103630005036000800000020DC00000026300008A2
:103640002C370008DC0000200C0C0000363000088D
:1036500001000000100000000000000000127A00CD
:103660000000000002000000000000000000000058
:10367000000000000000000000000000000000004A
:10368000000000000000000000000000000000003A
:103690001100000085320008040000008731000896
:1036A00003000000293100081000000095330008D5
:1036B00006000000FF32000817000000E931000892
:1036C000010000004530000805000000A932000894
:1036D0000F0000003133000802000000B73000087E
:1036E00000000000000000000000000000000000DA
:1036F00000000000000000000000000000000000CA
:1037000000000000000000000000000000000000B9
:10371000000001010101000000000101010101019F
:0C3720000000000001010000000000009B
:0400000508000131BD
:00000001FF
